S01800004E756D6265725F436F6E7665727465722E737265638C
S11300000C942A000C9447000C9447000C9447006D
S11300100C9447000C9447000C9447000C94470040
S11300200C9447000C9447000C9447000C94470030
S11300300C9447000C9447000C9447000C94470020
S11300400C9447000C9447000C9447000C94470010
S11300500C94470011241FBECFE5D8E0DEBFCDBF0E
S113006011E0A0E6B0E0E4E5F1E102C005900D92F4
S1130070AA32B107D9F721E0AAE2B1E001C01D928A
S1130080AE32B207E1F70E9476060C94A8080C94ED
S1130090000061E080E00E945E0680E690E00E943D
S11300A08A0562E081E00E945E068EE690E00E948E
S11300B08A052FEF89E698E1215080409040E1F7CE
S11300C000C000000895CF93C82F892F0E942606F0
S11300D08C2F0E942606CF9108950F931F93CF93E0
S11300E08C01CFE020E018C0213049F0C8010C2E6B
S11300F002C0969587950A94E2F780FF0CC0C80168
S11301000C2E02C0969587950A94E2F78170805D63
S11301100E94870521E0C150CC2334F7CF911F9171
S11301200F910895CF92DF92EF92FF92CF930E94A6
S11301306C068AE790E00E948A0560E081E00E94F4
S11301405E068FE790E00E948A05C0E06DC00E94C1
S11301505C04C82F40912A0150912B0160912C011D
S113016070912D016A017B01CC0CDD1CEE1CFF1C7F
S1130170D701C601880F991FAA1FBB1F880F991F9B
S1130180AA1FBB1FC80ED91EEA1EFB1E2C2F30E06F
S113019020533109C901330FAA0BBB0BC80ED91E5A
S11301A0EA1EFB1E80ED8C0F8A3050F5C114D10479
S11301B081E0E806F10420F5452B462B472BA1F4FA
S11301C064E080E00E945E0684E890E00E948A0574
S11301D064E081E00E945E0684E890E00E948A0563
S11301E064E080E00E945E068C2F0E948705C09226
S11301F02A01D0922B01E0922C01F0922D0114C01F
S1130200CD3391F464E081E00E945E0680912A017E
S113021090912B010E94630010922A0110922B01ED
S113022010922C0110922D01C33609F090CFCF917A
S1130230FF90EF90DF90CF900895CF92DF92EF92EE
S1130240FF92CF930E946C068AE790E00E948A0591
S113025060E081E00E945E0681E990E00E948A05E8
S1130260C0E06DC00E945C04C82F40912A015091E7
S11302702B0160912C0170912D016A017B01CC0C42
S1130280DD1CEE1CFF1CD701C601880F991FAA1F95
S1130290BB1F880F991FAA1FBB1FC80ED91EEA1EB9
S11302A0FB1E2C2F30E020533109C901330FAA0B58
S11302B0BB0BC80ED91EEA1EFB1E80ED8C0F8A30C4
S11302C050F5C11480E1D806E104F10420F5452B72
S11302D0462B472BA1F464E080E00E945E0684E88C
S11302E090E00E948A0564E081E00E945E0684E852
S11302F090E00E948A0564E080E00E945E068C2FF4
S11303000E948705C0922A01D0922B01E0922C0111
S1130310F0922D0114C0CD3391F464E081E00E9489
S11303205E0680912A0190912B010E946D0010922B
S11303302A0110922B0110922C0110922D01C33628
S113034009F090CFCF91FF90EF90DF90CF90089578
S1130350DC0180E090E043E01EC0FD01E40FF11DEC
S113036047FDFA95208130ED320F3A3050F48295F2
S11303709295907F9827807F9827820F911DC09730
S113038009C082959295907F9827807F9827820F45
S1130390911DC7974150E62FF0E0242F042E000C46
S11303A0330B2E173F07CCF608950F931F93CF936B
S11303B0DF9300D000D0CDB7DEB719821A821B823A
S11303C01C820E946C068FE790E00E948A0560E020
S11303D081E00E945E068AE790E00E948A0503E0BD
S11303E010E057C00E945C04182F8D33F9F40F5F9E
S11303F064E081E00E945E06602FCE0101960E94B7
S1130400A801BC0180E090E00E94A00580E00AC041
S1130410E1E0F0E0EC0FFD1FE80FF11D87FDFA9518
S113042010828F5F8430A4F303E033C0823589F1F6
S113043000237CF180912A0190912B01A0912C0141
S1130440B0912D01892B8A2B8B2BB1F40330A1F4AD
S113045064E080E00E945E0684E890E00E948A05E1
S113046064E081E00E945E0684E890E00E948A05D0
S113047064E080E00E945E06812F0E948705E1E02F
S1130480F0E0EC0FFD1FE00FF11D07FDFA9510835E
S11304900150133609F0A6CF0F900F900F900F90D4
S11304A0DF91CF911F910F9108950F931F93CF93D5
S11304B0DF9300D000D0CDB7DEB719821A821B8239
S11304C01C820E946C068FE790E00E948A0560E01F
S11304D081E00E945E0681E990E00E948A0503E0C3
S11304E010E054C00E945C04182F8D33E1F40F5FB8
S11304F064E081E00E945E06602FCE0101960E94B6
S1130500A8010E946D0080E00AC0E1E0F0E0EC0F79
S1130510FD1FE80FF11D87FDFA9510828F5F84306F
S1130520A4F303E033C0823589F110167CF5809181
S11305302A0190912B01A0912C01B0912D01892BBE
S11305408A2B8B2BB1F40330A1F464E080E00E9489
S11305505E0684E890E00E948A0564E081E00E94DF
S11305605E0684E890E00E948A0564E080E00E94D0
S11305705E06812F0E948705E1E0F0E0EC0FFD1F8D
S1130580E00FF11D07FDFA9510830150133609F0B1
S1130590A9CF0F900F900F900F90DF91CF911F91E3
S11305A00F910895DC0180E090E04BE00CC0880FCF
S11305B0991FFD01E40FF11D47FDFA952081820F7B
S11305C0911DC0974150E62FF0E0242F042E000C1B
S11305D0330B2E173F075CF708950F931F93CF93A8
S11305E0DF93CDB7DEB72C970FB6F894DEBF0FBEFE
S11305F0CDBFFE0131968CE0DF011D928A95E9F7AB
S11306000E946C0681E990E00E948A0560E081E026
S11306100E945E068AE790E00E948A051BE000E0E3
S11306204EC00E945C04082F8D3301F51F5F64E007
S113063081E00E945E06612FCE0101960E94D202E3
S1130640BC0180E090E00E94A00560E00AC0E1E007
S1130650F0E0EC0FFD1FE60FF11D67FDFA95108227
S11306606F5F6C30A4F31FEF160F29C080ED800F6D
S1130670823028F511231CF11B30A1F464E080E0E2
S11306800E945E0684E890E00E948A0564E081E0AE
S11306900E945E0684E890E00E948A0564E080E09F
S11306A00E945E06802F0E948705E1E0F0E0EC0FD7
S11306B0FD1FE10FF11D17FDFA950083115003365C
S11306C009F0AFCF2C960FB6F894DEBF0FBECDBFA6
S11306D0DF91CF911F910F9108950F931F93CF93A3
S11306E0DF93CDB7DEB72C970FB6F894DEBF0FBEFD
S11306F0CDBFFE0131968CE0DF011D928A95E9F7AA
S11307000E946C0681E990E00E948A0560E081E025
S11307100E945E068FE790E00E948A051BE000E0DD
S11307204BC00E945C04082F8D33E9F41F5F64E022
S113073081E00E945E06612FCE0101960E94D202E2
S11307400E94630060E00AC0E1E0F0E0EC0FFD1FEE
S1130750E60FF11D67FDFA9510826F5F6C30A4F30C
S11307601FEF160F29C080ED800F823028F511236A
S11307701CF11B30A1F464E080E00E945E0684E872
S113078090E00E948A0564E081E00E945E0684E8AD
S113079090E00E948A0564E080E00E945E06802F5B
S11307A00E948705E1E0F0E0EC0FFD1FE10FF11D71
S11307B017FDFA9500831150033609F0B2CF2C9639
S11307C00FB6F894DEBF0FBECDBFDF91CF911F915E
S11307D00F910895823321F1833309F43FC08133AB
S11307E009F059C086E990E00E948A0560E081E042
S11307F00E945E068EE990E00E948A0580E302C0B2
S11308000E945C048033E1F38333D0F7813319F41D
S11308100E94920008958233F1F50E941D0108950B
S11308208AEA90E00E948A0560E081E00E945E0608
S113083082EB90E00E948A0580E302C00E945C047F
S11308408033E1F38333D0F7813319F40E94D50167
S11308500895823301F50E94550208958EEB90E0CD
S11308600E948A0560E081E00E945E0686EC90E0CA
S11308700E948A0580E302C00E945C048033E1F395
S11308808333D0F7813319F40E94ED020895823343
S113089011F40E946D030895CF93C0E009C0EC2FBA
S11308A0F0E0EE5FFE4F61E080810E94AA07CF5F17
S11308B0C430A8F3CF910895BF92CF92DF92EF9204
S11308C0FF920F931F93CF93DF930F2EF2E5BF2E6A
S11308D0F02DD12C2FC0ED2CF12CF701EE5FFE4F43
S11308E0C08060E08C2D0E94AA07D0E01CC00D2FB0
S11308F010E0F801EA5FFE4FC0818C2F0E942F08A0
S1130900811110C0C701880F991F880F991F8E503D
S11309109F4FFC01E00FF11FB0808C2F0E942F0825
S11309208823D9F3DF5FD43010F361E08C2D0E946B
S1130930AA07D39483E08D1570F68B2DDF91CF91A8
S11309401F910F91FF90EF90DF90CF90BF9008958B
S1130950CF93C82F60E081E00E94AA07C4FB6627FA
S113096060F983E00E94AA07C5FB662760F984E06A
S11309700E94AA07C6FB662760F985E00E94AA07C1
S11309806C2F661F6627661F86E00E94AA0761E037
S113099082E00E94AA078FEC97E00197F1F700C06C
S11309A0000060E082E00E94AA078FEC97E00197C4
S11309B0F1F700C000006C2F617083E00E94AA0769
S11309C0C1FB662760F984E00E94AA07C2FB662780
S11309D060F985E00E94AA07C3FB662760F986E0F8
S11309E00E94AA0761E082E00E94AA078FEC97E0C8
S11309F00197F1F700C0000060E082E00E94AA07BE
S1130A008FEC97E00197F1F700C00000CF910895B3
S1130A10CF93C82F61E081E00E94AA07C4FB662738
S1130A2060F983E00E94AA07C5FB662760F984E0A9
S1130A300E94AA07C6FB662760F985E00E94AA0700
S1130A406C2F661F6627661F86E00E94AA0761E076
S1130A5082E00E94AA078FEC97E00197F1F700C0AB
S1130A60000060E082E00E94AA078FEC97E0019703
S1130A70F1F700C000006C2F617083E00E94AA07A8
S1130A80C1FB662760F984E00E94AA07C2FB6627BF
S1130A9060F985E00E94AA07C3FB662760F986E037
S1130AA00E94AA0761E082E00E94AA078FEC97E007
S1130AB00197F1F700C0000060E082E00E94AA07FD
S1130AC08FEC97E00197F1F700C00000CF910895F3
S1130AD02FEF89EF90E0215080409040E1F700C073
S1130AE0000082E00E94A80488E20E94A8048CE02E
S1130AF00E94A80481E00E94A8048FEC97E001976B
S1130B00F1F700C0000086E00E94A80408950E9446
S1130B10080508950F931F93CF93DF938C01C0E0D2
S1130B20D0E003C00E9408052196F801EC0FFD1FD8
S1130B3080818111F7CFDF91CF911F910F9108959B
S1130B408F929F92AF92BF92CF92DF92EF92FF92D9
S1130B50CF934B015C01672B682B692B19F480E35D
S1130B600E948705BB205CF4B094A0949094809478
S1130B70811C911CA11CB11C8DE20E948705C0E060
S1130B80C12CD12C760132C0CC0CDD1CEE1CFF1C18
S1130B90D701C601880F991FAA1FBB1F880F991F71
S1130BA0AA1FBB1FC80ED91EEA1EFB1EC501B40135
S1130BB02AE030E040E050E00E948908C60ED71ECB
S1130BC0E81EF91E672B682B692B31F4C114D1047C
S1130BD0E104F10409F4CF5FC501B4012AE030E077
S1130BE040E050E00E94890849015A0181149104AF
S1130BF0A104B10449F614C0C701B6012AE030E0EB
S1130C0040E050E00E946708822E932EA42EB52E59
S1130C1080E3860F0E948705C82CD92CEA2CFB2C74
S1130C20C114D104E104F10439F704C080E30E9443
S1130C308705C150C111FACFCF91FF90EF90DF909B
S1130C40CF90BF90AF909F908F9008950F931F9374
S1130C50CF93DF9300D0CDB7DEB721E030E00DC0F5
S1130C60E1E0F0E0EC0FFD1FE20FF31F982F9F70FF
S1130C70908382958F702150310933238CF700E0E3
S1130C8010E012C0E1E0F0E0EC0FFD1FE00FF11FF7
S1130C9080818A3020F0895C0E94870503C0805DD2
S1130CA00E9487050F5F1F4F023011055CF30F9000
S1130CB00F90DF91CF911F910F910895811105C07D
S1130CC0862F80680E94A8040895813021F4862F1D
S1130CD0806C0E94A804089581E00E94A8048FEC0F
S1130CE097E00197F1F700C0000008950E949A0769
S1130CF00E9468050E944C040E9449000E946C06F0
S1130D0061E080E00E945E068AE091E00E948A052C
S1130D1060E081E00E945E0687E191E00E948A051E
S1130D200E945C04C82F8FEF8C0F8333C8F70E9496
S1130D306C068C2F0E94EA03E1CF982F9695969526
S1130D4096958770613009F455C020F0623009F43B
S1130D50A1C008959130C1F028F0923039F1933058
S1130D60B9F108954AB321E030E0B90102C0660F39
S1130D70771F8A95E2F7CB01942F982B9ABB9BB3EC
S1130D80809589238BBB089547B321E030E0B901F6
S1130D9002C0660F771F8A95E2F7CB01942F982B38
S1130DA097BB98B38095892388BB089544B321E009
S1130DB030E0B90102C0660F771F8A95E2F7CB01D4
S1130DC0942F982B94BB95B38095892385BB089564
S1130DD041B321E030E0B90102C0660F771F8A9564
S1130DE0E2F7CB01942F982B91BB92B38095892382
S1130DF082BB08959130C1F028F0923039F19330DC
S1130E00B9F108954AB321E030E0B90102C0660F98
S1130E10771F8A95E2F7CB018095942F98239ABB8C
S1130E209BB389238BBB089547B321E030E0B9011C
S1130E3002C0660F771F8A95E2F7CB018095942F45
S1130E40982397BB98B3892388BB089544B321E0C2
S1130E5030E0B90102C0660F771F8A95E2F7CB0133
S1130E608095942F982394BB95B3892385BB0895CB
S1130E7041B321E030E0B90102C0660F771F8A95C3
S1130E80E2F7CB018095942F982391BB92B38923E9
S1130E9082BB08959130C1F028F0923039F193303B
S1130EA0B9F108954AB321E030E0B90102C0660FF8
S1130EB0771F8A95E2F7CB01962F909594239ABBDE
S1130EC09BB3892B8BBB089547B321E030E0B90174
S1130ED002C0660F771F8A95E2F7CB01962F909593
S1130EE0942397BB98B3892B88BB089544B321E01E
S1130EF030E0B90102C0660F771F8A95E2F7CB0193
S1130F00962F9095942394BB95B3892B85BB089514
S1130F1041B321E030E0B90102C0660F771F8A9522
S1130F20E2F7CB01962F9095942391BB92B3892B32
S1130F3082BB0895CF93C0E009C0EC2FF0E0EE52DD
S1130F40FF4F60818C2F0E949D06CF5FC032A8F3B3
S1130F50CF910895982F96959695969587706130C0
S1130F60E1F5913099F028F09230E9F0933041F1B5
S1130F7008954BB321E030E0B90102C0660F771F3A
S1130F808A95E2F7CB01842B8BBB089548B321E00B
S1130F9030E0B90102C0660F771F8A95E2F7CB01F2
S1130FA0842B88BB089545B321E030E0B90102C029
S1130FB0660F771F8A95E2F7CB01842B85BB0895D2
S1130FC042B321E030E0B90102C0660F771F8A9571
S1130FD0E2F7CB01842B82BB089561113FC09130AD
S1130FE0A1F028F09230F9F0933059F108954BB301
S1130FF021E030E0B90102C0660F771F8A95E2F75D
S1131000CB01809584238BBB089548B321E030E065
S1131010B90102C0660F771F8A95E2F7CB0180956C
S1131020842388BB089545B321E030E0B90102C0B0
S1131030660F771F8A95E2F7CB018095842385BBE1
S1131040089542B321E030E0B90102C0660F771F72
S11310508A95E2F7CB018095842382BB0895982F6B
S1131060969596959695482F4770913081F028F083
S11310709230B9F09330F9F028C099B3892F90E0F9
S113108002C0959587954A95E2F78170089526B335
S113109030E0C90102C0959587954A95E2F78170C1
S11310A0089523B330E0C90102C0959587954A9508
S11310B0E2F78170089520B330E0C90102C095952C
S11310C087954A95E2F78170089580E00895A1E23A
S11310D01A2EAA1BBB1BFD010DC0AA1FBB1FEE1FAE
S11310E0FF1FA217B307E407F50720F0A21BB30BF9
S11310F0E40BF50B661F771F881F991F1A9469F775
S113110060957095809590959B01AC01BD01CF01D0
S11311100895052E97FB1EF400940E94A00857FD25
S113112007D00E94670807FC03D04EF40C94A00873
S113113050954095309521953F4F4F4F5F4F0895FF
S113114090958095709561957F4F8F4F9F4F08952F
S1071150F894FFCF3D
S1131154636F6E7665727465722020627900414211
S113116444454C464154544148004445433A00489C
S113117445583A0020202020202020202020202010
S11311840042494E3A0044454320464F5200312E12
S113119448455820322E42494E0048455820464F6F
S11311A45200312E44454320322E42494E004249D6
S11311B44E20464F5200312E44454320322E48459A
S11311C458000000000000000000000000000000BF
S11311D400000000000000000000000002020202FF
S11311E400003738394134353642313233436330C1
S11311F43D440C0D0E0F1A1B1C1D636F6E76657235
S1131204742066726F6D00312E44454320322E489B
S10D1214455820332E42494E0000D5
S9030000FC
